{
  "_format": "hh-sol-artifact-1",
  "contractName": "PokemonNFT",
  "sourceName": "contracts/PokemonNFT.sol",
  "abi": [
    {
      "inputs": [],
      "stateMutability": "nonpayable",
      "type": "constructor"
    },
    {
      "anonymous": false,
      "inputs": [
        {
          "indexed": true,
          "internalType": "address",
          "name": "owner",
          "type": "address"
        },
        {
          "indexed": true,
          "internalType": "address",
          "name": "approved",
          "type": "address"
        },
        {
          "indexed": true,
          "internalType": "uint256",
          "name": "tokenId",
          "type": "uint256"
        }
      ],
      "name": "Approval",
      "type": "event"
    },
    {
      "anonymous": false,
      "inputs": [
        {
          "indexed": true,
          "internalType": "address",
          "name": "owner",
          "type": "address"
        },
        {
          "indexed": true,
          "internalType": "address",
          "name": "operator",
          "type": "address"
        },
        {
          "indexed": false,
          "internalType": "bool",
          "name": "approved",
          "type": "bool"
        }
      ],
      "name": "ApprovalForAll",
      "type": "event"
    },
    {
      "anonymous": false,
      "inputs": [
        {
          "indexed": false,
          "internalType": "address",
          "name": "sender",
          "type": "address"
        },
        {
          "indexed": false,
          "internalType": "uint256",
          "name": "tokenId",
          "type": "uint256"
        }
      ],
      "name": "NewNFTMinted",
      "type": "event"
    },
    {
      "anonymous": false,
      "inputs": [
        {
          "indexed": true,
          "internalType": "address",
          "name": "from",
          "type": "address"
        },
        {
          "indexed": true,
          "internalType": "address",
          "name": "to",
          "type": "address"
        },
        {
          "indexed": true,
          "internalType": "uint256",
          "name": "tokenId",
          "type": "uint256"
        }
      ],
      "name": "Transfer",
      "type": "event"
    },
    {
      "inputs": [
        {
          "internalType": "address",
          "name": "to",
          "type": "address"
        },
        {
          "internalType": "uint256",
          "name": "tokenId",
          "type": "uint256"
        }
      ],
      "name": "approve",
      "outputs": [],
      "stateMutability": "nonpayable",
      "type": "function"
    },
    {
      "inputs": [
        {
          "internalType": "address",
          "name": "owner",
          "type": "address"
        }
      ],
      "name": "balanceOf",
      "outputs": [
        {
          "internalType": "uint256",
          "name": "",
          "type": "uint256"
        }
      ],
      "stateMutability": "view",
      "type": "function"
    },
    {
      "inputs": [
        {
          "internalType": "uint256",
          "name": "tokenId",
          "type": "uint256"
        }
      ],
      "name": "getApproved",
      "outputs": [
        {
          "internalType": "address",
          "name": "",
          "type": "address"
        }
      ],
      "stateMutability": "view",
      "type": "function"
    },
    {
      "inputs": [
        {
          "internalType": "address",
          "name": "owner",
          "type": "address"
        },
        {
          "internalType": "address",
          "name": "operator",
          "type": "address"
        }
      ],
      "name": "isApprovedForAll",
      "outputs": [
        {
          "internalType": "bool",
          "name": "",
          "type": "bool"
        }
      ],
      "stateMutability": "view",
      "type": "function"
    },
    {
      "inputs": [
        {
          "internalType": "address",
          "name": "personAddress",
          "type": "address"
        }
      ],
      "name": "makeAPokemonNFT",
      "outputs": [],
      "stateMutability": "nonpayable",
      "type": "function"
    },
    {
      "inputs": [],
      "name": "merkleTreeAddress",
      "outputs": [
        {
          "internalType": "contract MerkleTree",
          "name": "",
          "type": "address"
        }
      ],
      "stateMutability": "view",
      "type": "function"
    },
    {
      "inputs": [],
      "name": "name",
      "outputs": [
        {
          "internalType": "string",
          "name": "",
          "type": "string"
        }
      ],
      "stateMutability": "view",
      "type": "function"
    },
    {
      "inputs": [
        {
          "internalType": "uint256",
          "name": "tokenId",
          "type": "uint256"
        }
      ],
      "name": "ownerOf",
      "outputs": [
        {
          "internalType": "address",
          "name": "",
          "type": "address"
        }
      ],
      "stateMutability": "view",
      "type": "function"
    },
    {
      "inputs": [
        {
          "internalType": "uint256",
          "name": "tokenId",
          "type": "uint256"
        }
      ],
      "name": "pickRandomPokemon",
      "outputs": [
        {
          "internalType": "string",
          "name": "",
          "type": "string"
        }
      ],
      "stateMutability": "view",
      "type": "function"
    },
    {
      "inputs": [
        {
          "internalType": "address",
          "name": "from",
          "type": "address"
        },
        {
          "internalType": "address",
          "name": "to",
          "type": "address"
        },
        {
          "internalType": "uint256",
          "name": "tokenId",
          "type": "uint256"
        }
      ],
      "name": "safeTransferFrom",
      "outputs": [],
      "stateMutability": "nonpayable",
      "type": "function"
    },
    {
      "inputs": [
        {
          "internalType": "address",
          "name": "from",
          "type": "address"
        },
        {
          "internalType": "address",
          "name": "to",
          "type": "address"
        },
        {
          "internalType": "uint256",
          "name": "tokenId",
          "type": "uint256"
        },
        {
          "internalType": "bytes",
          "name": "_data",
          "type": "bytes"
        }
      ],
      "name": "safeTransferFrom",
      "outputs": [],
      "stateMutability": "nonpayable",
      "type": "function"
    },
    {
      "inputs": [
        {
          "internalType": "address",
          "name": "operator",
          "type": "address"
        },
        {
          "internalType": "bool",
          "name": "approved",
          "type": "bool"
        }
      ],
      "name": "setApprovalForAll",
      "outputs": [],
      "stateMutability": "nonpayable",
      "type": "function"
    },
    {
      "inputs": [
        {
          "internalType": "bytes4",
          "name": "interfaceId",
          "type": "bytes4"
        }
      ],
      "name": "supportsInterface",
      "outputs": [
        {
          "internalType": "bool",
          "name": "",
          "type": "bool"
        }
      ],
      "stateMutability": "view",
      "type": "function"
    },
    {
      "inputs": [],
      "name": "symbol",
      "outputs": [
        {
          "internalType": "string",
          "name": "",
          "type": "string"
        }
      ],
      "stateMutability": "view",
      "type": "function"
    },
    {
      "inputs": [
        {
          "internalType": "uint256",
          "name": "tokenId",
          "type": "uint256"
        }
      ],
      "name": "tokenURI",
      "outputs": [
        {
          "internalType": "string",
          "name": "",
          "type": "string"
        }
      ],
      "stateMutability": "view",
      "type": "function"
    },
    {
      "inputs": [
        {
          "internalType": "address",
          "name": "from",
          "type": "address"
        },
        {
          "internalType": "address",
          "name": "to",
          "type": "address"
        },
        {
          "internalType": "uint256",
          "name": "tokenId",
          "type": "uint256"
        }
      ],
      "name": "transferFrom",
      "outputs": [],
      "stateMutability": "nonpayable",
      "type": "function"
    }
  ],
  "bytecode": "0x608060405260405180610120016040528060f181526020016200494160f19139600890805190602001906200003692919062000475565b506040518060400160405280600d81526020017f3c2f746578743e3c2f7376673e00000000000000000000000000000000000000815250600990805190602001906200008492919062000475565b506040518060e001604052806040518060400160405280600781526020017f4a6f6c74656f6e0000000000000000000000000000000000000000000000000081525081526020016040518060400160405280600881526020017f5363657074696c6500000000000000000000000000000000000000000000000081525081526020016040518060400160405280600981526020017f447261676f6e697465000000000000000000000000000000000000000000000081525081526020016040518060400160405280600781526020017f4b696e676472610000000000000000000000000000000000000000000000000081525081526020016040518060400160405280600881526020017f536e6561736c657200000000000000000000000000000000000000000000000081525081526020016040518060400160405280600781526020017f44726170696f6e0000000000000000000000000000000000000000000000000081525081526020016040518060400160405280600a81526020017f5370726967617469746f00000000000000000000000000000000000000000000815250815250600a9060076200023d92919062000506565b503480156200024b57600080fd5b506040518060400160405280600a81526020017f506f6b656d6f6e4e4654000000000000000000000000000000000000000000008152506040518060400160405280600481526020017f504f4b45000000000000000000000000000000000000000000000000000000008152508160009080519060200190620002d092919062000475565b508060019080519060200190620002e992919062000475565b505050620003376040518060400160405280601481526020017f506f6b656d6f6e204e465420636f6e7472616374000000000000000000000000815250620003a960201b62000f591760201c565b60405162000345906200056d565b604051809103906000f08015801562000362573d6000803e3d6000fd5b50600b60006101000a81548173ffffffffffffffffffffffffffffffffffffffff021916908373ffffffffffffffffffffffffffffffffffffffff16021790555062000735565b6200044981604051602401620003c0919062000649565b6040516020818303038152906040527f41304fac000000000000000000000000000000000000000000000000000000007bffffffffffffffffffffffffffffffffffffffffffffffffffffffff19166020820180517bffffffffffffffffffffffffffffffffffffffffffffffffffffffff83818316178352505050506200044c60201b60201c565b50565b60008151905060006a636f6e736f6c652e6c6f679050602083016000808483855afa5050505050565b8280546200048390620006bf565b90600052602060002090601f016020900481019282620004a75760008555620004f3565b82601f10620004c257805160ff1916838001178555620004f3565b82800160010185558215620004f3579182015b82811115620004f2578251825591602001919060010190620004d5565b5b5090506200050291906200057b565b5090565b8280548282559060005260206000209081019282156200055a579160200282015b82811115620005595782518290805190602001906200054892919062000475565b509160200191906001019062000527565b5b5090506200056991906200059a565b5090565b610a548062003eed83390190565b5b80821115620005965760008160009055506001016200057c565b5090565b5b80821115620005be5760008181620005b49190620005c2565b506001016200059b565b5090565b508054620005d090620006bf565b6000825580601f10620005e4575062000605565b601f0160209004906000526020600020908101906200060491906200057b565b5b50565b600062000615826200066d565b62000621818562000678565b93506200063381856020860162000689565b6200063e8162000724565b840191505092915050565b6000602082019050818103600083015262000665818462000608565b905092915050565b600081519050919050565b600082825260208201905092915050565b60005b83811015620006a95780820151818401526020810190506200068c565b83811115620006b9576000848401525b50505050565b60006002820490506001821680620006d857607f821691505b60208210811415620006ef57620006ee620006f5565b5b50919050565b7f4e487b7100000000000000000000000000000000000000000000000000000000600052602260045260246000fd5b6000601f19601f8301169050919050565b6137a880620007456000396000f3fe608060405234801561001057600080fd5b50600436106101005760003560e01c80636352211e11610097578063b88d4fde11610066578063b88d4fde146102bd578063c87b56dd146102d9578063cd0d20f514610309578063e985e9c51461032757610100565b80636352211e1461022357806370a082311461025357806395d89b4114610283578063a22cb465146102a157610100565b8063095ea7b3116100d3578063095ea7b31461019f57806323b872dd146101bb57806342842e0e146101d75780635a84288c146101f357610100565b806301ffc9a714610105578063061ea5171461013557806306fdde0314610151578063081812fc1461016f575b600080fd5b61011f600480360381019061011a9190612351565b610357565b60405161012c91906129d3565b60405180910390f35b61014f600480360381019061014a91906121aa565b610439565b005b610159610710565b6040516101669190612a09565b60405180910390f35b610189600480360381019061018491906123a3565b6107a2565b6040516101969190612943565b60405180910390f35b6101b960048036038101906101b49190612315565b610827565b005b6101d560048036038101906101d0919061220f565b61093f565b005b6101f160048036038101906101ec919061220f565b61099f565b005b61020d600480360381019061020891906123a3565b6109bf565b60405161021a9190612a09565b60405180910390f35b61023d600480360381019061023891906123a3565b610ad9565b60405161024a9190612943565b60405180910390f35b61026d600480360381019061026891906121aa565b610b8b565b60405161027a9190612c69565b60405180910390f35b61028b610c43565b6040516102989190612a09565b60405180910390f35b6102bb60048036038101906102b691906122d9565b610cd5565b005b6102d760048036038101906102d2919061225e565b610ceb565b005b6102f360048036038101906102ee91906123a3565b610d4d565b6040516103009190612a09565b60405180910390f35b610311610e9f565b60405161031e91906129ee565b60405180910390f35b610341600480360381019061033c91906121d3565b610ec5565b60405161034e91906129d3565b60405180910390f35b60007f80ac58cd000000000000000000000000000000000000000000000000000000007bffffffffffffffffffffffffffffffffffffffffffffffffffffffff1916827bffffffffffffffffffffffffffffffffffffffffffffffffffffffff1916148061042257507f5b5e139f000000000000000000000000000000000000000000000000000000007bffffffffffffffffffffffffffffffffffffffffffffffffffffffff1916827bffffffffffffffffffffffffffffffffffffffffffffffffffffffff1916145b80610432575061043182610ff2565b5b9050919050565b6000610445600761105c565b90506000610452826109bf565b90506000600882600960405160200161046d93929190612867565b60405160208183030381529060405290506104bc6040518060400160405280601581526020017f0a2d2d2d2d2d2d2d2d2d2d2d2d2d2d2d2d2d2d2d2d0000000000000000000000815250610f59565b6104c581610f59565b6105036040518060400160405280601581526020017f2d2d2d2d2d2d2d2d2d2d2d2d2d2d2d2d2d2d2d2d0a0000000000000000000000815250610f59565b6000610537836105128461106a565b6040516020016105239291906128dc565b60405160208183030381529060405261106a565b905060008160405160200161054c9190612921565b604051602081830303815290604052905061059b6040518060400160405280601581526020017f0a2d2d2d2d2d2d2d2d2d2d2d2d2d2d2d2d2d2d2d2d0000000000000000000000815250610f59565b6105c3816040516020016105af9190612898565b604051602081830303815290604052610f59565b6106016040518060400160405280601581526020017f2d2d2d2d2d2d2d2d2d2d2d2d2d2d2d2d2d2d2d2d0a0000000000000000000000815250610f59565b61060b86866111f4565b6106158582611212565b600b60009054906101000a900473ffffffffffffffffffffffffffffffffffffffff1673ffffffffffffffffffffffffffffffffffffffff1663d4a2498d856040518263ffffffff1660e01b81526004016106709190612a09565b600060405180830381600087803b15801561068a57600080fd5b505af115801561069e573d6000803e3d6000fd5b505050506106ac6007611286565b6106cf60405180606001604052806025815260200161370e60259139868861129c565b7f1c05098ed1ff38e6238d2b1b04b2c7977d4c94ce651bda6473f9dba8dbf01da033866040516107009291906129aa565b60405180910390a1505050505050565b60606000805461071f90612f21565b80601f016020809104026020016040519081016040528092919081815260200182805461074b90612f21565b80156107985780601f1061076d57610100808354040283529160200191610798565b820191906000526020600020905b81548152906001019060200180831161077b57829003601f168201915b5050505050905090565b60006107ad8261133b565b6107ec576040517f08c379a00000000000000000000000000000000000000000000000000000000081526004016107e390612be9565b60405180910390fd5b6004600083815260200190815260200160002060009054906101000a900473ffffffffffffffffffffffffffffffffffffffff169050919050565b600061083282610ad9565b90508073ffffffffffffffffffffffffffffffffffffffff168373ffffffffffffffffffffffffffffffffffffffff1614156108a3576040517f08c379a000000000000000000000000000000000000000000000000000000000815260040161089a90612c29565b60405180910390fd5b8073ffffffffffffffffffffffffffffffffffffffff166108c26113a7565b73ffffffffffffffffffffffffffffffffffffffff1614806108f157506108f0816108eb6113a7565b610ec5565b5b610930576040517f08c379a000000000000000000000000000000000000000000000000000000000815260040161092790612b29565b60405180910390fd5b61093a83836113af565b505050565b61095061094a6113a7565b82611468565b61098f576040517f08c379a000000000000000000000000000000000000000000000000000000000815260040161098690612c49565b60405180910390fd5b61099a838383611546565b505050565b6109ba83838360405180602001604052806000815250610ceb565b505050565b606060006109f36109cf846117ad565b6040516020016109df91906128ba565b60405160208183030381529060405261195a565b9050600a808054905082610a079190612fcd565b81548110610a3e577f4e487b7100000000000000000000000000000000000000000000000000000000600052603260045260246000fd5b906000526020600020018054610a5390612f21565b80601f0160208091040260200160405190810160405280929190818152602001828054610a7f90612f21565b8015610acc5780601f10610aa157610100808354040283529160200191610acc565b820191906000526020600020905b815481529060010190602001808311610aaf57829003601f168201915b5050505050915050919050565b6000806002600084815260200190815260200160002060009054906101000a900473ffffffffffffffffffffffffffffffffffffffff169050600073ffffffffffffffffffffffffffffffffffffffff168173ffffffffffffffffffffffffffffffffffffffff161415610b82576040517f08c379a0000000000000000000000000000000000000000000000000000000008152600401610b7990612b69565b60405180910390fd5b80915050919050565b60008073ffffffffffffffffffffffffffffffffffffffff168273ffffffffffffffffffffffffffffffffffffffff161415610bfc576040517f08c379a0000000000000000000000000000000000000000000000000000000008152600401610bf390612b49565b60405180910390fd5b600360008373ffffffffffffffffffffffffffffffffffffffff1673ffffffffffffffffffffffffffffffffffffffff168152602001908152602001600020549050919050565b606060018054610c5290612f21565b80601f0160208091040260200160405190810160405280929190818152602001828054610c7e90612f21565b8015610ccb5780601f10610ca057610100808354040283529160200191610ccb565b820191906000526020600020905b815481529060010190602001808311610cae57829003601f168201915b5050505050905090565b610ce7610ce06113a7565b838361198d565b5050565b610cfc610cf66113a7565b83611468565b610d3b576040517f08c379a0000000000000000000000000000000000000000000000000000000008152600401610d3290612c49565b60405180910390fd5b610d4784848484611afa565b50505050565b6060610d588261133b565b610d97576040517f08c379a0000000000000000000000000000000000000000000000000000000008152600401610d8e90612bc9565b60405180910390fd5b6000600660008481526020019081526020016000208054610db790612f21565b80601f0160208091040260200160405190810160405280929190818152602001828054610de390612f21565b8015610e305780601f10610e0557610100808354040283529160200191610e30565b820191906000526020600020905b815481529060010190602001808311610e1357829003601f168201915b505050505090506000610e41611b56565b9050600081511415610e57578192505050610e9a565b600082511115610e8c578082604051602001610e74929190612843565b60405160208183030381529060405292505050610e9a565b610e9584611b6d565b925050505b919050565b600b60009054906101000a900473ffffffffffffffffffffffffffffffffffffffff1681565b6000600560008473ffffffffffffffffffffffffffffffffffffffff1673ffffffffffffffffffffffffffffffffffffffff16815260200190815260200160002060008373ffffffffffffffffffffffffffffffffffffffff1673ffffffffffffffffffffffffffffffffffffffff16815260200190815260200160002060009054906101000a900460ff16905092915050565b610fef81604051602401610f6d9190612a09565b6040516020818303038152906040527f41304fac000000000000000000000000000000000000000000000000000000007bffffffffffffffffffffffffffffffffffffffffffffffffffffffff19166020820180517bffffffffffffffffffffffffffffffffffffffffffffffffffffffff8381831617835250505050611c14565b50565b60007f01ffc9a7000000000000000000000000000000000000000000000000000000007bffffffffffffffffffffffffffffffffffffffffffffffffffffffff1916827bffffffffffffffffffffffffffffffffffffffffffffffffffffffff1916149050919050565b600081600001549050919050565b606060008251141561108d576040518060200160405280600081525090506111ef565b600060405180606001604052806040815260200161373360409139905060006003600285516110bc9190612d32565b6110c69190612d88565b60046110d29190612db9565b67ffffffffffffffff811115611111577f4e487b7100000000000000000000000000000000000000000000000000000000600052604160045260246000fd5b6040519080825280601f01601f1916602001820160405280156111435781602001600182028036833780820191505090505b509050600182016020820185865187015b808210156111af576003820191508151603f8160121c168501518453600184019350603f81600c1c168501518453600184019350603f8160061c168501518453600184019350603f8116850151845360018401935050611154565b50506003865106600181146111cb57600281146111de576111e6565b603d6001830353603d60028303536111e6565b603d60018303535b50505080925050505b919050565b61120e828260405180602001604052806000815250611c3d565b5050565b61121b8261133b565b61125a576040517f08c379a000000000000000000000000000000000000000000000000000000000815260040161125190612b89565b60405180910390fd5b80600660008481526020019081526020016000209080519060200190611281929190612036565b505050565b6001816000016000828254019250508190555050565b6113368383836040516024016112b493929190612a2b565b6040516020818303038152906040527fe3849f79000000000000000000000000000000000000000000000000000000007bffffffffffffffffffffffffffffffffffffffffffffffffffffffff19166020820180517bffffffffffffffffffffffffffffffffffffffffffffffffffffffff8381831617835250505050611c14565b505050565b60008073ffffffffffffffffffffffffffffffffffffffff166002600084815260200190815260200160002060009054906101000a900473ffffffffffffffffffffffffffffffffffffffff1673ffffffffffffffffffffffffffffffffffffffff1614159050919050565b600033905090565b816004600083815260200190815260200160002060006101000a81548173ffffffffffffffffffffffffffffffffffffffff021916908373ffffffffffffffffffffffffffffffffffffffff160217905550808273ffffffffffffffffffffffffffffffffffffffff1661142283610ad9565b73ffffffffffffffffffffffffffffffffffffffff167f8c5be1e5ebec7d5bd14f71427d1e84f3dd0314c0f7b2291e5b200ac8c7c3b92560405160405180910390a45050565b60006114738261133b565b6114b2576040517f08c379a00000000000000000000000000000000000000000000000000000000081526004016114a990612b09565b60405180910390fd5b60006114bd83610ad9565b90508073ffffffffffffffffffffffffffffffffffffffff168473ffffffffffffffffffffffffffffffffffffffff16148061152c57508373ffffffffffffffffffffffffffffffffffffffff16611514846107a2565b73ffffffffffffffffffffffffffffffffffffffff16145b8061153d575061153c8185610ec5565b5b91505092915050565b8273ffffffffffffffffffffffffffffffffffffffff1661156682610ad9565b73ffffffffffffffffffffffffffffffffffffffff16146115bc576040517f08c379a00000000000000000000000000000000000000000000000000000000081526004016115b390612a89565b60405180910390fd5b600073ffffffffffffffffffffffffffffffffffffffff168273ffffffffffffffffffffffffffffffffffffffff16141561162c576040517f08c379a000000000000000000000000000000000000000000000000000000000815260040161162390612ac9565b60405180910390fd5b611637838383611c98565b6116426000826113af565b6001600360008573ffffffffffffffffffffffffffffffffffffffff1673ffffffffffffffffffffffffffffffffffffffff16815260200190815260200160002060008282546116929190612e13565b925050819055506001600360008473ffffffffffffffffffffffffffffffffffffffff1673ffffffffffffffffffffffffffffffffffffffff16815260200190815260200160002060008282546116e99190612d32565b92505081905550816002600083815260200190815260200160002060006101000a81548173ffffffffffffffffffffffffffffffffffffffff021916908373ffffffffffffffffffffffffffffffffffffffff160217905550808273ffffffffffffffffffffffffffffffffffffffff168473ffffffffffffffffffffffffffffffffffffffff167fddf252ad1be2c89b69c2b068fc378daa952ba7f163c4a11628f55a4df523b3ef60405160405180910390a46117a8838383611c9d565b505050565b606060008214156117f5576040518060400160405280600181526020017f30000000000000000000000000000000000000000000000000000000000000008152509050611955565b600082905060005b6000821461182757808061181090612f84565b915050600a826118209190612d88565b91506117fd565b60008167ffffffffffffffff811115611869577f4e487b7100000000000000000000000000000000000000000000000000000000600052604160045260246000fd5b6040519080825280601f01601f19166020018201604052801561189b5781602001600182028036833780820191505090505b5090505b6000851461194e576001826118b49190612e13565b9150600a856118c39190612fcd565b60306118cf9190612d32565b60f81b81838151811061190b577f4e487b7100000000000000000000000000000000000000000000000000000000600052603260045260246000fd5b60200101907effffffffffffffffffffffffffffffffffffffffffffffffffffffffffffff1916908160001a905350600a856119479190612d88565b945061189f565b8093505050505b919050565b60008160405160200161196d919061282c565b6040516020818303038152906040528051906020012060001c9050919050565b8173ffffffffffffffffffffffffffffffffffffffff168373ffffffffffffffffffffffffffffffffffffffff1614156119fc576040517f08c379a00000000000000000000000000000000000000000000000000000000081526004016119f390612ae9565b60405180910390fd5b80600560008573ffffffffffffffffffffffffffffffffffffffff1673ffffffffffffffffffffffffffffffffffffffff16815260200190815260200160002060008473ffffffffffffffffffffffffffffffffffffffff1673ffffffffffffffffffffffffffffffffffffffff16815260200190815260200160002060006101000a81548160ff0219169083151502179055508173ffffffffffffffffffffffffffffffffffffffff168373ffffffffffffffffffffffffffffffffffffffff167f17307eab39ab6107e8899845ad3d59bd9653f200f220920489ca2b5937696c3183604051611aed91906129d3565b60405180910390a3505050565b611b05848484611546565b611b1184848484611ca2565b611b50576040517f08c379a0000000000000000000000000000000000000000000000000000000008152600401611b4790612a69565b60405180910390fd5b50505050565b606060405180602001604052806000815250905090565b6060611b788261133b565b611bb7576040517f08c379a0000000000000000000000000000000000000000000000000000000008152600401611bae90612c09565b60405180910390fd5b6000611bc1611b56565b90506000815111611be15760405180602001604052806000815250611c0c565b80611beb846117ad565b604051602001611bfc929190612843565b6040516020818303038152906040525b915050919050565b60008151905060006a636f6e736f6c652e6c6f679050602083016000808483855afa5050505050565b611c478383611e39565b611c546000848484611ca2565b611c93576040517f08c379a0000000000000000000000000000000000000000000000000000000008152600401611c8a90612a69565b60405180910390fd5b505050565b505050565b505050565b6000611cc38473ffffffffffffffffffffffffffffffffffffffff16612013565b15611e2c578373ffffffffffffffffffffffffffffffffffffffff1663150b7a02611cec6113a7565b8786866040518563ffffffff1660e01b8152600401611d0e949392919061295e565b602060405180830381600087803b158015611d2857600080fd5b505af1925050508015611d5957506040513d601f19601f82011682018060405250810190611d56919061237a565b60015b611ddc573d8060008114611d89576040519150601f19603f3d011682016040523d82523d6000602084013e611d8e565b606091505b50600081511415611dd4576040517f08c379a0000000000000000000000000000000000000000000000000000000008152600401611dcb90612a69565b60405180910390fd5b805181602001fd5b63150b7a0260e01b7bffffffffffffffffffffffffffffffffffffffffffffffffffffffff1916817bffffffffffffffffffffffffffffffffffffffffffffffffffffffff191614915050611e31565b600190505b949350505050565b600073ffffffffffffffffffffffffffffffffffffffff168273ffffffffffffffffffffffffffffffffffffffff161415611ea9576040517f08c379a0000000000000000000000000000000000000000000000000000000008152600401611ea090612ba9565b60405180910390fd5b611eb28161133b565b15611ef2576040517f08c379a0000000000000000000000000000000000000000000000000000000008152600401611ee990612aa9565b60405180910390fd5b611efe60008383611c98565b6001600360008473ffffffffffffffffffffffffffffffffffffffff1673ffffffffffffffffffffffffffffffffffffffff1681526020019081526020016000206000828254611f4e9190612d32565b92505081905550816002600083815260200190815260200160002060006101000a81548173ffffffffffffffffffffffffffffffffffffffff021916908373ffffffffffffffffffffffffffffffffffffffff160217905550808273ffffffffffffffffffffffffffffffffffffffff16600073ffffffffffffffffffffffffffffffffffffffff167fddf252ad1be2c89b69c2b068fc378daa952ba7f163c4a11628f55a4df523b3ef60405160405180910390a461200f60008383611c9d565b5050565b6000808273ffffffffffffffffffffffffffffffffffffffff163b119050919050565b82805461204290612f21565b90600052602060002090601f01602090048101928261206457600085556120ab565b82601f1061207d57805160ff19168380011785556120ab565b828001600101855582156120ab579182015b828111156120aa57825182559160200191906001019061208f565b5b5090506120b891906120bc565b5090565b5b808211156120d55760008160009055506001016120bd565b5090565b60006120ec6120e784612ca9565b612c84565b90508281526020810184848401111561210457600080fd5b61210f848285612edf565b509392505050565b600081359050612126816136b1565b92915050565b60008135905061213b816136c8565b92915050565b600081359050612150816136df565b92915050565b600081519050612165816136df565b92915050565b600082601f83011261217c57600080fd5b813561218c8482602086016120d9565b91505092915050565b6000813590506121a4816136f6565b92915050565b6000602082840312156121bc57600080fd5b60006121ca84828501612117565b91505092915050565b600080604083850312156121e657600080fd5b60006121f485828601612117565b925050602061220585828601612117565b9150509250929050565b60008060006060848603121561222457600080fd5b600061223286828701612117565b935050602061224386828701612117565b925050604061225486828701612195565b9150509250925092565b6000806000806080858703121561227457600080fd5b600061228287828801612117565b945050602061229387828801612117565b93505060406122a487828801612195565b925050606085013567ffffffffffffffff8111156122c157600080fd5b6122cd8782880161216b565b91505092959194509250565b600080604083850312156122ec57600080fd5b60006122fa85828601612117565b925050602061230b8582860161212c565b9150509250929050565b6000806040838503121561232857600080fd5b600061233685828601612117565b925050602061234785828601612195565b9150509250929050565b60006020828403121561236357600080fd5b600061237184828501612141565b91505092915050565b60006020828403121561238c57600080fd5b600061239a84828501612156565b91505092915050565b6000602082840312156123b557600080fd5b60006123c384828501612195565b91505092915050565b6123d581612e47565b82525050565b6123e481612e59565b82525050565b60006123f582612cef565b6123ff8185612d05565b935061240f818560208601612eee565b612418816130ba565b840191505092915050565b61242c81612ebb565b82525050565b600061243d82612cfa565b6124478185612d16565b9350612457818560208601612eee565b612460816130ba565b840191505092915050565b600061247682612cfa565b6124808185612d27565b9350612490818560208601612eee565b80840191505092915050565b600081546124a981612f21565b6124b38186612d27565b945060018216600081146124ce57600181146124df57612512565b60ff19831686528186019350612512565b6124e885612cda565b60005b8381101561250a578154818901526001820191506020810190506124eb565b838801955050505b50505092915050565b6000612528602583612d27565b9150612533826130cb565b602582019050919050565b600061254b603283612d16565b91506125568261311a565b604082019050919050565b600061256e602583612d16565b915061257982613169565b604082019050919050565b6000612591601c83612d16565b915061259c826131b8565b602082019050919050565b60006125b4602483612d16565b91506125bf826131e1565b604082019050919050565b60006125d7601983612d16565b91506125e282613230565b602082019050919050565b60006125fa602c83612d16565b915061260582613259565b604082019050919050565b600061261d603883612d16565b9150612628826132a8565b604082019050919050565b6000612640602a83612d16565b915061264b826132f7565b604082019050919050565b6000612663602983612d16565b915061266e82613346565b604082019050919050565b6000612686602e83612d16565b915061269182613395565b604082019050919050565b60006126a9600283612d27565b91506126b4826133e4565b600282019050919050565b60006126cc602083612d16565b91506126d78261340d565b602082019050919050565b60006126ef603183612d16565b91506126fa82613436565b604082019050919050565b6000612712602c83612d16565b915061271d82613485565b604082019050919050565b6000612735600483612d27565b9150612740826134d4565b600482019050919050565b6000612758602f83612d16565b9150612763826134fd565b604082019050919050565b600061277b600a83612d27565b91506127868261354c565b600a82019050919050565b600061279e605d83612d27565b91506127a982613575565b605d82019050919050565b60006127c1602183612d16565b91506127cc826135ea565b604082019050919050565b60006127e4601d83612d27565b91506127ef82613639565b601d82019050919050565b6000612807603183612d16565b915061281282613662565b604082019050919050565b61282681612eb1565b82525050565b6000612838828461246b565b915081905092915050565b600061284f828561246b565b915061285b828461246b565b91508190509392505050565b6000612873828661249c565b915061287f828561246b565b915061288b828461249c565b9150819050949350505050565b60006128a38261251b565b91506128af828461246b565b915081905092915050565b60006128c582612728565b91506128d1828461246b565b915081905092915050565b60006128e78261276e565b91506128f3828561246b565b91506128fe82612791565b915061290a828461246b565b91506129158261269c565b91508190509392505050565b600061292c826127d7565b9150612938828461246b565b915081905092915050565b600060208201905061295860008301846123cc565b92915050565b600060808201905061297360008301876123cc565b61298060208301866123cc565b61298d604083018561281d565b818103606083015261299f81846123ea565b905095945050505050565b60006040820190506129bf60008301856123cc565b6129cc602083018461281d565b9392505050565b60006020820190506129e860008301846123db565b92915050565b6000602082019050612a036000830184612423565b92915050565b60006020820190508181036000830152612a238184612432565b905092915050565b60006060820190508181036000830152612a458186612432565b9050612a54602083018561281d565b612a6160408301846123cc565b949350505050565b60006020820190508181036000830152612a828161253e565b9050919050565b60006020820190508181036000830152612aa281612561565b9050919050565b60006020820190508181036000830152612ac281612584565b9050919050565b60006020820190508181036000830152612ae2816125a7565b9050919050565b60006020820190508181036000830152612b02816125ca565b9050919050565b60006020820190508181036000830152612b22816125ed565b9050919050565b60006020820190508181036000830152612b4281612610565b9050919050565b60006020820190508181036000830152612b6281612633565b9050919050565b60006020820190508181036000830152612b8281612656565b9050919050565b60006020820190508181036000830152612ba281612679565b9050919050565b60006020820190508181036000830152612bc2816126bf565b9050919050565b60006020820190508181036000830152612be2816126e2565b9050919050565b60006020820190508181036000830152612c0281612705565b9050919050565b60006020820190508181036000830152612c228161274b565b9050919050565b60006020820190508181036000830152612c42816127b4565b9050919050565b60006020820190508181036000830152612c62816127fa565b9050919050565b6000602082019050612c7e600083018461281d565b92915050565b6000612c8e612c9f565b9050612c9a8282612f53565b919050565b6000604051905090565b600067ffffffffffffffff821115612cc457612cc361308b565b5b612ccd826130ba565b9050602081019050919050565b60008190508160005260206000209050919050565b600081519050919050565b600081519050919050565b600082825260208201905092915050565b600082825260208201905092915050565b600081905092915050565b6000612d3d82612eb1565b9150612d4883612eb1565b9250827fffffffffffffffffffffffffffffffffffffffffffffffffffffffffffffffff03821115612d7d57612d7c612ffe565b5b828201905092915050565b6000612d9382612eb1565b9150612d9e83612eb1565b925082612dae57612dad61302d565b5b828204905092915050565b6000612dc482612eb1565b9150612dcf83612eb1565b9250817fffffffffffffffffffffffffffffffffffffffffffffffffffffffffffffffff0483118215151615612e0857612e07612ffe565b5b828202905092915050565b6000612e1e82612eb1565b9150612e2983612eb1565b925082821015612e3c57612e3b612ffe565b5b828203905092915050565b6000612e5282612e91565b9050919050565b60008115159050919050565b60007fffffffff0000000000000000000000000000000000000000000000000000000082169050919050565b600073ffffffffffffffffffffffffffffffffffffffff82169050919050565b6000819050919050565b6000612ec682612ecd565b9050919050565b6000612ed882612e91565b9050919050565b82818337600083830152505050565b60005b83811015612f0c578082015181840152602081019050612ef1565b83811115612f1b576000848401525b50505050565b60006002820490506001821680612f3957607f821691505b60208210811415612f4d57612f4c61305c565b5b50919050565b612f5c826130ba565b810181811067ffffffffffffffff82111715612f7b57612f7a61308b565b5b80604052505050565b6000612f8f82612eb1565b91507fffffffffffffffffffffffffffffffffffffffffffffffffffffffffffffffff821415612fc257612fc1612ffe565b5b600182019050919050565b6000612fd882612eb1565b9150612fe383612eb1565b925082612ff357612ff261302d565b5b828206905092915050565b7f4e487b7100000000000000000000000000000000000000000000000000000000600052601160045260246000fd5b7f4e487b7100000000000000000000000000000000000000000000000000000000600052601260045260246000fd5b7f4e487b7100000000000000000000000000000000000000000000000000000000600052602260045260246000fd5b7f4e487b7100000000000000000000000000000000000000000000000000000000600052604160045260246000fd5b6000601f19601f8301169050919050565b7f68747470733a2f2f6e6674707265766965772e30786465762e636f6465732f3f60008201527f636f64653d000000000000000000000000000000000000000000000000000000602082015250565b7f4552433732313a207472616e7366657220746f206e6f6e20455243373231526560008201527f63656976657220696d706c656d656e7465720000000000000000000000000000602082015250565b7f4552433732313a207472616e736665722066726f6d20696e636f72726563742060008201527f6f776e6572000000000000000000000000000000000000000000000000000000602082015250565b7f4552433732313a20746f6b656e20616c7265616479206d696e74656400000000600082015250565b7f4552433732313a207472616e7366657220746f20746865207a65726f2061646460008201527f7265737300000000000000000000000000000000000000000000000000000000602082015250565b7f4552433732313a20617070726f766520746f2063616c6c657200000000000000600082015250565b7f4552433732313a206f70657261746f7220717565727920666f72206e6f6e657860008201527f697374656e7420746f6b656e0000000000000000000000000000000000000000602082015250565b7f4552433732313a20617070726f76652063616c6c6572206973206e6f74206f7760008201527f6e6572206e6f7220617070726f76656420666f7220616c6c0000000000000000602082015250565b7f4552433732313a2062616c616e636520717565727920666f7220746865207a6560008201527f726f206164647265737300000000000000000000000000000000000000000000602082015250565b7f4552433732313a206f776e657220717565727920666f72206e6f6e657869737460008201527f656e7420746f6b656e0000000000000000000000000000000000000000000000602082015250565b7f45524337323155524953746f726167653a2055524920736574206f66206e6f6e60008201527f6578697374656e7420746f6b656e000000000000000000000000000000000000602082015250565b7f227d000000000000000000000000000000000000000000000000000000000000600082015250565b7f4552433732313a206d696e7420746f20746865207a65726f2061646472657373600082015250565b7f45524337323155524953746f726167653a2055524920717565727920666f722060008201527f6e6f6e6578697374656e7420746f6b656e000000000000000000000000000000602082015250565b7f4552433732313a20617070726f76656420717565727920666f72206e6f6e657860008201527f697374656e7420746f6b656e0000000000000000000000000000000000000000602082015250565b7f504f4b4500000000000000000000000000000000000000000000000000000000600082015250565b7f4552433732314d657461646174613a2055524920717565727920666f72206e6f60008201527f6e6578697374656e7420746f6b656e0000000000000000000000000000000000602082015250565b7f7b226e616d65223a202200000000000000000000000000000000000000000000600082015250565b7f222c20226465736372697074696f6e223a20224120636f6c6c656374696f6e2060008201527f6f6620636f6f6c20706f6b656d6f6e206e616d65732e222c2022696d6167652260208201527f3a2022646174613a696d6167652f7376672b786d6c3b6261736536342c000000604082015250565b7f4552433732313a20617070726f76616c20746f2063757272656e74206f776e6560008201527f7200000000000000000000000000000000000000000000000000000000000000602082015250565b7f646174613a6170706c69636174696f6e2f6a736f6e3b6261736536342c000000600082015250565b7f4552433732313a207472616e736665722063616c6c6572206973206e6f74206f60008201527f776e6572206e6f7220617070726f766564000000000000000000000000000000602082015250565b6136ba81612e47565b81146136c557600080fd5b50565b6136d181612e59565b81146136dc57600080fd5b50565b6136e881612e65565b81146136f357600080fd5b50565b6136ff81612eb1565b811461370a57600080fd5b5056fe416e204e465420772f20494420257320686173206265656e206d696e74656420746f2025734142434445464748494a4b4c4d4e4f505152535455565758595a6162636465666768696a6b6c6d6e6f707172737475767778797a303132333435363738392b2fa26469706673582212202a519adab7710c25438d19677154af2e8748f1df1b7272b60e380b6de4cb65c064736f6c63430008040033608060405234801561001057600080fd5b506100596040518060400160405280601381526020017f4d65726b6c65205472656520637265617465640000000000000000000000000081525061005e60201b6102b21760201c565b6101e1565b6100fa81604051602401610072919061015f565b6040516020818303038152906040527f41304fac000000000000000000000000000000000000000000000000000000007bffffffffffffffffffffffffffffffffffffffffffffffffffffffff19166020820180517bffffffffffffffffffffffffffffffffffffffffffffffffffffffff83818316178352505050506100fd60201b60201c565b50565b60008151905060006a636f6e736f6c652e6c6f679050602083016000808483855afa5050505050565b600061013182610181565b61013b818561018c565b935061014b81856020860161019d565b610154816101d0565b840191505092915050565b600060208201905081810360008301526101798184610126565b905092915050565b600081519050919050565b600082825260208201905092915050565b60005b838110156101bb5780820151818401526020810190506101a0565b838111156101ca576000848401525b50505050565b6000601f19601f8301169050919050565b610864806101f06000396000f3fe608060405234801561001057600080fd5b50600436106100415760003560e01c80633bc5de3014610046578063d4a2498d14610064578063f0ba844014610080575b600080fd5b61004e6100b0565b60405161005b91906105f9565b60405180910390f35b61007e60048036038101906100799190610494565b610189565b005b61009a600480360381019061009591906104d5565b610206565b6040516100a7919061061b565b60405180910390f35b60606000805480602002602001604051908101604052809291908181526020016000905b828210156101805783829060005260206000200180546100f390610745565b80601f016020809104026020016040519081016040528092919081815260200182805461011f90610745565b801561016c5780601f106101415761010080835404028352916020019161016c565b820191906000526020600020905b81548152906001019060200180831161014f57829003601f168201915b5050505050815260200190600101906100d4565b50505050905090565b6000819080600181540180825580915050600190039060005260206000200160009091909190915090805190602001906101c4929190610374565b506102036040518060400160405280600e81526020017f4e657720656c656d2061646465640000000000000000000000000000000000008152506102b2565b50565b6000818154811061021657600080fd5b90600052602060002001600091509050805461023190610745565b80601f016020809104026020016040519081016040528092919081815260200182805461025d90610745565b80156102aa5780601f1061027f576101008083540402835291602001916102aa565b820191906000526020600020905b81548152906001019060200180831161028d57829003601f168201915b505050505081565b610348816040516024016102c6919061061b565b6040516020818303038152906040527f41304fac000000000000000000000000000000000000000000000000000000007bffffffffffffffffffffffffffffffffffffffffffffffffffffffff19166020820180517bffffffffffffffffffffffffffffffffffffffffffffffffffffffff838183161783525050505061034b565b50565b60008151905060006a636f6e736f6c652e6c6f679050602083016000808483855afa5050505050565b82805461038090610745565b90600052602060002090601f0160209004810192826103a257600085556103e9565b82601f106103bb57805160ff19168380011785556103e9565b828001600101855582156103e9579182015b828111156103e85782518255916020019190600101906103cd565b5b5090506103f691906103fa565b5090565b5b808211156104135760008160009055506001016103fb565b5090565b600061042a61042584610662565b61063d565b90508281526020810184848401111561044257600080fd5b61044d848285610703565b509392505050565b600082601f83011261046657600080fd5b8135610476848260208601610417565b91505092915050565b60008135905061048e81610817565b92915050565b6000602082840312156104a657600080fd5b600082013567ffffffffffffffff8111156104c057600080fd5b6104cc84828501610455565b91505092915050565b6000602082840312156104e757600080fd5b60006104f58482850161047f565b91505092915050565b600061050a8383610587565b905092915050565b600061051d826106a3565b61052781856106c6565b93508360208202850161053985610693565b8060005b85811015610575578484038952815161055685826104fe565b9450610561836106b9565b925060208a0199505060018101905061053d565b50829750879550505050505092915050565b6000610592826106ae565b61059c81856106d7565b93506105ac818560208601610712565b6105b581610806565b840191505092915050565b60006105cb826106ae565b6105d581856106e8565b93506105e5818560208601610712565b6105ee81610806565b840191505092915050565b600060208201905081810360008301526106138184610512565b905092915050565b6000602082019050818103600083015261063581846105c0565b905092915050565b6000610647610658565b90506106538282610777565b919050565b6000604051905090565b600067ffffffffffffffff82111561067d5761067c6107d7565b5b61068682610806565b9050602081019050919050565b6000819050602082019050919050565b600081519050919050565b600081519050919050565b6000602082019050919050565b600082825260208201905092915050565b600082825260208201905092915050565b600082825260208201905092915050565b6000819050919050565b82818337600083830152505050565b60005b83811015610730578082015181840152602081019050610715565b8381111561073f576000848401525b50505050565b6000600282049050600182168061075d57607f821691505b60208210811415610771576107706107a8565b5b50919050565b61078082610806565b810181811067ffffffffffffffff8211171561079f5761079e6107d7565b5b80604052505050565b7f4e487b7100000000000000000000000000000000000000000000000000000000600052602260045260246000fd5b7f4e487b7100000000000000000000000000000000000000000000000000000000600052604160045260246000fd5b6000601f19601f8301169050919050565b610820816106f9565b811461082b57600080fd5b5056fea2646970667358221220c23ea039509c4d37f141d8b26069a2a2702c5df23d5c3ea7f3b0195fe27ae26f64736f6c634300080400333c7376672077696474683d2234303022206865696768743d22343030222076696577426f783d2230203020343030203430302220786d6c6e733d22687474703a2f2f7777772e77332e6f72672f323030302f737667223e3c726563742077696474683d223130302522206865696768743d2231303025222f3e3c7465787420783d223530252220793d223530252220646f6d696e616e742d626173656c696e653d226d6964646c652220746578742d616e63686f723d226d6964646c6522207374796c653d2266696c6c3a236666663b666f6e742d66616d696c793a73616e733b666f6e742d73697a653a33307078223e",
  "linkReferences": {},
  "deployedLinkReferences": {}
}