{
  "_format": "hh-sol-artifact-1",
  "contractName": "PokemonNFT",
  "sourceName": "contracts/PokemonNFT.sol",
  "abi": [
    {
      "inputs": [
        {
          "internalType": "uint256",
          "name": "_limit_to_mint",
          "type": "uint256"
        }
      ],
      "stateMutability": "nonpayable",
      "type": "constructor"
    },
    {
      "anonymous": false,
      "inputs": [
        {
          "indexed": true,
          "internalType": "address",
          "name": "owner",
          "type": "address"
        },
        {
          "indexed": true,
          "internalType": "address",
          "name": "approved",
          "type": "address"
        },
        {
          "indexed": true,
          "internalType": "uint256",
          "name": "tokenId",
          "type": "uint256"
        }
      ],
      "name": "Approval",
      "type": "event"
    },
    {
      "anonymous": false,
      "inputs": [
        {
          "indexed": true,
          "internalType": "address",
          "name": "owner",
          "type": "address"
        },
        {
          "indexed": true,
          "internalType": "address",
          "name": "operator",
          "type": "address"
        },
        {
          "indexed": false,
          "internalType": "bool",
          "name": "approved",
          "type": "bool"
        }
      ],
      "name": "ApprovalForAll",
      "type": "event"
    },
    {
      "anonymous": false,
      "inputs": [
        {
          "indexed": false,
          "internalType": "address",
          "name": "sender",
          "type": "address"
        },
        {
          "indexed": false,
          "internalType": "uint256",
          "name": "tokenId",
          "type": "uint256"
        }
      ],
      "name": "NewNFTMinted",
      "type": "event"
    },
    {
      "anonymous": false,
      "inputs": [
        {
          "indexed": true,
          "internalType": "address",
          "name": "from",
          "type": "address"
        },
        {
          "indexed": true,
          "internalType": "address",
          "name": "to",
          "type": "address"
        },
        {
          "indexed": true,
          "internalType": "uint256",
          "name": "tokenId",
          "type": "uint256"
        }
      ],
      "name": "Transfer",
      "type": "event"
    },
    {
      "inputs": [
        {
          "internalType": "address",
          "name": "to",
          "type": "address"
        },
        {
          "internalType": "uint256",
          "name": "tokenId",
          "type": "uint256"
        }
      ],
      "name": "approve",
      "outputs": [],
      "stateMutability": "nonpayable",
      "type": "function"
    },
    {
      "inputs": [
        {
          "internalType": "address",
          "name": "owner",
          "type": "address"
        }
      ],
      "name": "balanceOf",
      "outputs": [
        {
          "internalType": "uint256",
          "name": "",
          "type": "uint256"
        }
      ],
      "stateMutability": "view",
      "type": "function"
    },
    {
      "inputs": [
        {
          "internalType": "uint256",
          "name": "tokenId",
          "type": "uint256"
        }
      ],
      "name": "getApproved",
      "outputs": [
        {
          "internalType": "address",
          "name": "",
          "type": "address"
        }
      ],
      "stateMutability": "view",
      "type": "function"
    },
    {
      "inputs": [],
      "name": "getCurrentIndex",
      "outputs": [
        {
          "internalType": "uint256",
          "name": "",
          "type": "uint256"
        }
      ],
      "stateMutability": "view",
      "type": "function"
    },
    {
      "inputs": [],
      "name": "getLimit",
      "outputs": [
        {
          "internalType": "uint256",
          "name": "",
          "type": "uint256"
        }
      ],
      "stateMutability": "view",
      "type": "function"
    },
    {
      "inputs": [],
      "name": "getMerkleTreeLeaves",
      "outputs": [
        {
          "internalType": "bytes32[]",
          "name": "",
          "type": "bytes32[]"
        }
      ],
      "stateMutability": "view",
      "type": "function"
    },
    {
      "inputs": [
        {
          "internalType": "address",
          "name": "owner",
          "type": "address"
        },
        {
          "internalType": "address",
          "name": "operator",
          "type": "address"
        }
      ],
      "name": "isApprovedForAll",
      "outputs": [
        {
          "internalType": "bool",
          "name": "",
          "type": "bool"
        }
      ],
      "stateMutability": "view",
      "type": "function"
    },
    {
      "inputs": [],
      "name": "limit_to_mint",
      "outputs": [
        {
          "internalType": "uint256",
          "name": "",
          "type": "uint256"
        }
      ],
      "stateMutability": "view",
      "type": "function"
    },
    {
      "inputs": [
        {
          "internalType": "address",
          "name": "personAddress",
          "type": "address"
        }
      ],
      "name": "makeAPokemonNFT",
      "outputs": [],
      "stateMutability": "nonpayable",
      "type": "function"
    },
    {
      "inputs": [],
      "name": "merkleTree",
      "outputs": [
        {
          "internalType": "contract MerkleTree",
          "name": "",
          "type": "address"
        }
      ],
      "stateMutability": "view",
      "type": "function"
    },
    {
      "inputs": [],
      "name": "name",
      "outputs": [
        {
          "internalType": "string",
          "name": "",
          "type": "string"
        }
      ],
      "stateMutability": "view",
      "type": "function"
    },
    {
      "inputs": [
        {
          "internalType": "uint256",
          "name": "tokenId",
          "type": "uint256"
        }
      ],
      "name": "ownerOf",
      "outputs": [
        {
          "internalType": "address",
          "name": "",
          "type": "address"
        }
      ],
      "stateMutability": "view",
      "type": "function"
    },
    {
      "inputs": [
        {
          "internalType": "uint256",
          "name": "tokenId",
          "type": "uint256"
        }
      ],
      "name": "pickRandomPokemon",
      "outputs": [
        {
          "internalType": "string",
          "name": "",
          "type": "string"
        }
      ],
      "stateMutability": "view",
      "type": "function"
    },
    {
      "inputs": [
        {
          "internalType": "address",
          "name": "from",
          "type": "address"
        },
        {
          "internalType": "address",
          "name": "to",
          "type": "address"
        },
        {
          "internalType": "uint256",
          "name": "tokenId",
          "type": "uint256"
        }
      ],
      "name": "safeTransferFrom",
      "outputs": [],
      "stateMutability": "nonpayable",
      "type": "function"
    },
    {
      "inputs": [
        {
          "internalType": "address",
          "name": "from",
          "type": "address"
        },
        {
          "internalType": "address",
          "name": "to",
          "type": "address"
        },
        {
          "internalType": "uint256",
          "name": "tokenId",
          "type": "uint256"
        },
        {
          "internalType": "bytes",
          "name": "_data",
          "type": "bytes"
        }
      ],
      "name": "safeTransferFrom",
      "outputs": [],
      "stateMutability": "nonpayable",
      "type": "function"
    },
    {
      "inputs": [
        {
          "internalType": "address",
          "name": "operator",
          "type": "address"
        },
        {
          "internalType": "bool",
          "name": "approved",
          "type": "bool"
        }
      ],
      "name": "setApprovalForAll",
      "outputs": [],
      "stateMutability": "nonpayable",
      "type": "function"
    },
    {
      "inputs": [
        {
          "internalType": "bytes4",
          "name": "interfaceId",
          "type": "bytes4"
        }
      ],
      "name": "supportsInterface",
      "outputs": [
        {
          "internalType": "bool",
          "name": "",
          "type": "bool"
        }
      ],
      "stateMutability": "view",
      "type": "function"
    },
    {
      "inputs": [],
      "name": "symbol",
      "outputs": [
        {
          "internalType": "string",
          "name": "",
          "type": "string"
        }
      ],
      "stateMutability": "view",
      "type": "function"
    },
    {
      "inputs": [
        {
          "internalType": "uint256",
          "name": "tokenId",
          "type": "uint256"
        }
      ],
      "name": "tokenURI",
      "outputs": [
        {
          "internalType": "string",
          "name": "",
          "type": "string"
        }
      ],
      "stateMutability": "view",
      "type": "function"
    },
    {
      "inputs": [
        {
          "internalType": "address",
          "name": "from",
          "type": "address"
        },
        {
          "internalType": "address",
          "name": "to",
          "type": "address"
        },
        {
          "internalType": "uint256",
          "name": "tokenId",
          "type": "uint256"
        }
      ],
      "name": "transferFrom",
      "outputs": [],
      "stateMutability": "nonpayable",
      "type": "function"
    }
  ],
  "bytecode": "0x608060405260405180610120016040528060f181526020016200533760f191396008908051906020019062000036929190620004b1565b506040518060400160405280600d81526020017f3c2f746578743e3c2f7376673e000000000000000000000000000000000000008152506009908051906020019062000084929190620004b1565b506040518060e001604052806040518060400160405280600781526020017f4a6f6c74656f6e0000000000000000000000000000000000000000000000000081525081526020016040518060400160405280600881526020017f5363657074696c6500000000000000000000000000000000000000000000000081525081526020016040518060400160405280600981526020017f447261676f6e697465000000000000000000000000000000000000000000000081525081526020016040518060400160405280600781526020017f4b696e676472610000000000000000000000000000000000000000000000000081525081526020016040518060400160405280600881526020017f536e6561736c657200000000000000000000000000000000000000000000000081525081526020016040518060400160405280600781526020017f44726170696f6e0000000000000000000000000000000000000000000000000081525081526020016040518060400160405280600a81526020017f5370726967617469746f00000000000000000000000000000000000000000000815250815250600a9060076200023d92919062000542565b503480156200024b57600080fd5b50604051620054283803806200542883398181016040528101906200027191906200065b565b6040518060400160405280600a81526020017f506f6b656d6f6e4e4654000000000000000000000000000000000000000000008152506040518060400160405280600481526020017f504f4b45000000000000000000000000000000000000000000000000000000008152508160009080519060200190620002f5929190620004b1565b5080600190805190602001906200030e929190620004b1565b5050506200035c6040518060400160405280601481526020017f506f6b656d6f6e204e465420636f6e7472616374000000000000000000000000815250620003e560201b6200102b1760201c565b80600c81905550600c546040516200037490620005a9565b620003809190620006fd565b604051809103906000f0801580156200039d573d6000803e3d6000fd5b50600b60006101000a81548173ffffffffffffffffffffffffffffffffffffffff021916908373ffffffffffffffffffffffffffffffffffffffff1602179055505062000806565b6200048581604051602401620003fc9190620006d9565b6040516020818303038152906040527f41304fac000000000000000000000000000000000000000000000000000000007bffffffffffffffffffffffffffffffffffffffffffffffffffffffff19166020820180517bffffffffffffffffffffffffffffffffffffffffffffffffffffffff83818316178352505050506200048860201b60201c565b50565b60008151905060006a636f6e736f6c652e6c6f679050602083016000808483855afa5050505050565b828054620004bf9062000776565b90600052602060002090601f016020900481019282620004e357600085556200052f565b82601f10620004fe57805160ff19168380011785556200052f565b828001600101855582156200052f579182015b828111156200052e57825182559160200191906001019062000511565b5b5090506200053e9190620005b7565b5090565b82805482825590600052602060002090810192821562000596579160200282015b828111156200059557825182908051906020019062000584929190620004b1565b509160200191906001019062000563565b5b509050620005a59190620005d6565b5090565b610e9b806200449c83390190565b5b80821115620005d2576000816000905550600101620005b8565b5090565b5b80821115620005fa5760008181620005f09190620005fe565b50600101620005d7565b5090565b5080546200060c9062000776565b6000825580601f1062000620575062000641565b601f016020900490600052602060002090810190620006409190620005b7565b5b50565b6000815190506200065581620007ec565b92915050565b6000602082840312156200066e57600080fd5b60006200067e8482850162000644565b91505092915050565b600062000694826200071a565b620006a0818562000725565b9350620006b281856020860162000740565b620006bd81620007db565b840191505092915050565b620006d38162000736565b82525050565b60006020820190508181036000830152620006f5818462000687565b905092915050565b6000602082019050620007146000830184620006c8565b92915050565b600081519050919050565b600082825260208201905092915050565b6000819050919050565b60005b838110156200076057808201518184015260208101905062000743565b8381111562000770576000848401525b50505050565b600060028204905060018216806200078f57607f821691505b60208210811415620007a657620007a5620007ac565b5b50919050565b7f4e487b7100000000000000000000000000000000000000000000000000000000600052602260045260246000fd5b6000601f19601f8301169050919050565b620007f78162000736565b81146200080357600080fd5b50565b613c8680620008166000396000f3fe608060405234801561001057600080fd5b506004361061012c5760003560e01c80636686d357116100ad578063b88d4fde11610071578063b88d4fde14610343578063bb7df0521461035f578063c87b56dd1461037d578063e985e9c5146103ad578063ef4e3aca146103dd5761012c565b80636686d3571461029d57806370a08231146102bb57806395d89b41146102eb578063a22cb46514610309578063b295a00e146103255761012c565b80630d9005ae116100f45780630d9005ae146101e757806323b872dd1461020557806342842e0e146102215780635a84288c1461023d5780636352211e1461026d5761012c565b806301ffc9a714610131578063061ea5171461016157806306fdde031461017d578063081812fc1461019b578063095ea7b3146101cb575b600080fd5b61014b6004803603810190610146919061250f565b6103fb565b6040516101589190612d36565b60405180910390f35b61017b60048036038101906101769190612327565b6104dd565b005b610185610715565b6040516101929190612d6c565b60405180910390f35b6101b560048036038101906101b09190612561565b6107a7565b6040516101c29190612c84565b60405180910390f35b6101e560048036038101906101e09190612492565b61082c565b005b6101ef610944565b6040516101fc9190612fec565b60405180910390f35b61021f600480360381019061021a919061238c565b610955565b005b61023b6004803603810190610236919061238c565b6109b5565b005b61025760048036038101906102529190612561565b6109d5565b6040516102649190612d6c565b60405180910390f35b61028760048036038101906102829190612561565b610aef565b6040516102949190612c84565b60405180910390f35b6102a5610ba1565b6040516102b29190612d14565b60405180910390f35b6102d560048036038101906102d09190612327565b610c4d565b6040516102e29190612fec565b60405180910390f35b6102f3610d05565b6040516103009190612d6c565b60405180910390f35b610323600480360381019061031e9190612456565b610d97565b005b61032d610dad565b60405161033a9190612fec565b60405180910390f35b61035d600480360381019061035891906123db565b610db7565b005b610367610e19565b6040516103749190612d51565b60405180910390f35b61039760048036038101906103929190612561565b610e3f565b6040516103a49190612d6c565b60405180910390f35b6103c760048036038101906103c29190612350565b610f91565b6040516103d49190612d36565b60405180910390f35b6103e5611025565b6040516103f29190612fec565b60405180910390f35b60007f80ac58cd000000000000000000000000000000000000000000000000000000007bffffffffffffffffffffffffffffffffffffffffffffffffffffffff1916827bffffffffffffffffffffffffffffffffffffffffffffffffffffffff191614806104c657507f5b5e139f000000000000000000000000000000000000000000000000000000007bffffffffffffffffffffffffffffffffffffffffffffffffffffffff1916827bffffffffffffffffffffffffffffffffffffffffffffffffffffffff1916145b806104d657506104d5826110c4565b5b9050919050565b600c546104ea600761112e565b1061052a576040517f08c379a000000000000000000000000000000000000000000000000000000000815260040161052190612f6c565b60405180910390fd5b6000610536600761112e565b905060006008610545836109d5565b600960405160200161055993929190612b4d565b604051602081830303815290604052905060006105a6610578846109d5565b6105818461113c565b604051602001610592929190612c1d565b60405160208183030381529060405261113c565b90506000816040516020016105bb9190612c62565b60405160208183030381529060405290506105d685856112c6565b6105e084826112e4565b600061061833876105f088611358565b856040516020016106049493929190612b7e565b60405160208183030381529060405261113c565b9050600b60009054906101000a900473ffffffffffffffffffffffffffffffffffffffff1673ffffffffffffffffffffffffffffffffffffffff1663b1498e29826040518263ffffffff1660e01b81526004016106759190612d6c565b600060405180830381600087803b15801561068f57600080fd5b505af11580156106a3573d6000803e3d6000fd5b505050506106b16007611505565b6106d4604051806060016040528060258152602001613bec60259139868861151b565b7f1c05098ed1ff38e6238d2b1b04b2c7977d4c94ce651bda6473f9dba8dbf01da03386604051610705929190612ceb565b60405180910390a1505050505050565b60606000805461072490613313565b80601f016020809104026020016040519081016040528092919081815260200182805461075090613313565b801561079d5780601f106107725761010080835404028352916020019161079d565b820191906000526020600020905b81548152906001019060200180831161078057829003601f168201915b5050505050905090565b60006107b2826115ba565b6107f1576040517f08c379a00000000000000000000000000000000000000000000000000000000081526004016107e890612f4c565b60405180910390fd5b6004600083815260200190815260200160002060009054906101000a900473ffffffffffffffffffffffffffffffffffffffff169050919050565b600061083782610aef565b90508073ffffffffffffffffffffffffffffffffffffffff168373ffffffffffffffffffffffffffffffffffffffff1614156108a8576040517f08c379a000000000000000000000000000000000000000000000000000000000815260040161089f90612fac565b60405180910390fd5b8073ffffffffffffffffffffffffffffffffffffffff166108c7611626565b73ffffffffffffffffffffffffffffffffffffffff1614806108f657506108f5816108f0611626565b610f91565b5b610935576040517f08c379a000000000000000000000000000000000000000000000000000000000815260040161092c90612e8c565b60405180910390fd5b61093f838361162e565b505050565b6000610950600761112e565b905090565b610966610960611626565b826116e7565b6109a5576040517f08c379a000000000000000000000000000000000000000000000000000000000815260040161099c90612fcc565b60405180910390fd5b6109b08383836117c5565b505050565b6109d083838360405180602001604052806000815250610db7565b505050565b60606000610a096109e584611358565b6040516020016109f59190612bfb565b604051602081830303815290604052611a2c565b9050600a808054905082610a1d91906133e3565b81548110610a54577f4e487b7100000000000000000000000000000000000000000000000000000000600052603260045260246000fd5b906000526020600020018054610a6990613313565b80601f0160208091040260200160405190810160405280929190818152602001828054610a9590613313565b8015610ae25780601f10610ab757610100808354040283529160200191610ae2565b820191906000526020600020905b815481529060010190602001808311610ac557829003601f168201915b5050505050915050919050565b6000806002600084815260200190815260200160002060009054906101000a900473ffffffffffffffffffffffffffffffffffffffff169050600073ffffffffffffffffffffffffffffffffffffffff168173ffffffffffffffffffffffffffffffffffffffff161415610b98576040517f08c379a0000000000000000000000000000000000000000000000000000000008152600401610b8f90612ecc565b60405180910390fd5b80915050919050565b6060600b60009054906101000a900473ffffffffffffffffffffffffffffffffffffffff1673ffffffffffffffffffffffffffffffffffffffff1663ad2b30376040518163ffffffff1660e01b815260040160006040518083038186803b158015610c0b57600080fd5b505afa158015610c1f573d6000803e3d6000fd5b505050506040513d6000823e3d601f19601f82011682018060405250810190610c4891906124ce565b905090565b60008073ffffffffffffffffffffffffffffffffffffffff168273ffffffffffffffffffffffffffffffffffffffff161415610cbe576040517f08c379a0000000000000000000000000000000000000000000000000000000008152600401610cb590612eac565b60405180910390fd5b600360008373ffffffffffffffffffffffffffffffffffffffff1673ffffffffffffffffffffffffffffffffffffffff168152602001908152602001600020549050919050565b606060018054610d1490613313565b80601f0160208091040260200160405190810160405280929190818152602001828054610d4090613313565b8015610d8d5780601f10610d6257610100808354040283529160200191610d8d565b820191906000526020600020905b815481529060010190602001808311610d7057829003601f168201915b5050505050905090565b610da9610da2611626565b8383611a5f565b5050565b6000600c54905090565b610dc8610dc2611626565b836116e7565b610e07576040517f08c379a0000000000000000000000000000000000000000000000000000000008152600401610dfe90612fcc565b60405180910390fd5b610e1384848484611bcc565b50505050565b600b60009054906101000a900473ffffffffffffffffffffffffffffffffffffffff1681565b6060610e4a826115ba565b610e89576040517f08c379a0000000000000000000000000000000000000000000000000000000008152600401610e8090612f2c565b60405180910390fd5b6000600660008481526020019081526020016000208054610ea990613313565b80601f0160208091040260200160405190810160405280929190818152602001828054610ed590613313565b8015610f225780601f10610ef757610100808354040283529160200191610f22565b820191906000526020600020905b815481529060010190602001808311610f0557829003601f168201915b505050505090506000610f33611c28565b9050600081511415610f49578192505050610f8c565b600082511115610f7e578082604051602001610f66929190612b29565b60405160208183030381529060405292505050610f8c565b610f8784611c3f565b925050505b919050565b6000600560008473ffffffffffffffffffffffffffffffffffffffff1673ffffffffffffffffffffffffffffffffffffffff16815260200190815260200160002060008373ffffffffffffffffffffffffffffffffffffffff1673ffffffffffffffffffffffffffffffffffffffff16815260200190815260200160002060009054906101000a900460ff16905092915050565b600c5481565b6110c18160405160240161103f9190612d6c565b6040516020818303038152906040527f41304fac000000000000000000000000000000000000000000000000000000007bffffffffffffffffffffffffffffffffffffffffffffffffffffffff19166020820180517bffffffffffffffffffffffffffffffffffffffffffffffffffffffff8381831617835250505050611ce6565b50565b60007f01ffc9a7000000000000000000000000000000000000000000000000000000007bffffffffffffffffffffffffffffffffffffffffffffffffffffffff1916827bffffffffffffffffffffffffffffffffffffffffffffffffffffffff1916149050919050565b600081600001549050919050565b606060008251141561115f576040518060200160405280600081525090506112c1565b6000604051806060016040528060408152602001613c11604091399050600060036002855161118e919061311a565b6111989190613170565b60046111a491906131a1565b67ffffffffffffffff8111156111e3577f4e487b7100000000000000000000000000000000000000000000000000000000600052604160045260246000fd5b6040519080825280601f01601f1916602001820160405280156112155781602001600182028036833780820191505090505b509050600182016020820185865187015b80821015611281576003820191508151603f8160121c168501518453600184019350603f81600c1c168501518453600184019350603f8160061c168501518453600184019350603f8116850151845360018401935050611226565b505060038651066001811461129d57600281146112b0576112b8565b603d6001830353603d60028303536112b8565b603d60018303535b50505080925050505b919050565b6112e0828260405180602001604052806000815250611d0f565b5050565b6112ed826115ba565b61132c576040517f08c379a000000000000000000000000000000000000000000000000000000000815260040161132390612eec565b60405180910390fd5b80600660008481526020019081526020016000209080519060200190611353929190612108565b505050565b606060008214156113a0576040518060400160405280600181526020017f30000000000000000000000000000000000000000000000000000000000000008152509050611500565b600082905060005b600082146113d25780806113bb90613376565b915050600a826113cb9190613170565b91506113a8565b60008167ffffffffffffffff811115611414577f4e487b7100000000000000000000000000000000000000000000000000000000600052604160045260246000fd5b6040519080825280601f01601f1916602001820160405280156114465781602001600182028036833780820191505090505b5090505b600085146114f95760018261145f91906131fb565b9150600a8561146e91906133e3565b603061147a919061311a565b60f81b8183815181106114b6577f4e487b7100000000000000000000000000000000000000000000000000000000600052603260045260246000fd5b60200101907effffffffffffffffffffffffffffffffffffffffffffffffffffffffffffff1916908160001a905350600a856114f29190613170565b945061144a565b8093505050505b919050565b6001816000016000828254019250508190555050565b6115b583838360405160240161153393929190612d8e565b6040516020818303038152906040527fe3849f79000000000000000000000000000000000000000000000000000000007bffffffffffffffffffffffffffffffffffffffffffffffffffffffff19166020820180517bffffffffffffffffffffffffffffffffffffffffffffffffffffffff8381831617835250505050611ce6565b505050565b60008073ffffffffffffffffffffffffffffffffffffffff166002600084815260200190815260200160002060009054906101000a900473ffffffffffffffffffffffffffffffffffffffff1673ffffffffffffffffffffffffffffffffffffffff1614159050919050565b600033905090565b816004600083815260200190815260200160002060006101000a81548173ffffffffffffffffffffffffffffffffffffffff021916908373ffffffffffffffffffffffffffffffffffffffff160217905550808273ffffffffffffffffffffffffffffffffffffffff166116a183610aef565b73ffffffffffffffffffffffffffffffffffffffff167f8c5be1e5ebec7d5bd14f71427d1e84f3dd0314c0f7b2291e5b200ac8c7c3b92560405160405180910390a45050565b60006116f2826115ba565b611731576040517f08c379a000000000000000000000000000000000000000000000000000000000815260040161172890612e6c565b60405180910390fd5b600061173c83610aef565b90508073ffffffffffffffffffffffffffffffffffffffff168473ffffffffffffffffffffffffffffffffffffffff1614806117ab57508373ffffffffffffffffffffffffffffffffffffffff16611793846107a7565b73ffffffffffffffffffffffffffffffffffffffff16145b806117bc57506117bb8185610f91565b5b91505092915050565b8273ffffffffffffffffffffffffffffffffffffffff166117e582610aef565b73ffffffffffffffffffffffffffffffffffffffff161461183b576040517f08c379a000000000000000000000000000000000000000000000000000000000815260040161183290612dec565b60405180910390fd5b600073ffffffffffffffffffffffffffffffffffffffff168273ffffffffffffffffffffffffffffffffffffffff1614156118ab576040517f08c379a00000000000000000000000000000000000000000000000000000000081526004016118a290612e2c565b60405180910390fd5b6118b6838383611d6a565b6118c160008261162e565b6001600360008573ffffffffffffffffffffffffffffffffffffffff1673ffffffffffffffffffffffffffffffffffffffff168152602001908152602001600020600082825461191191906131fb565b925050819055506001600360008473ffffffffffffffffffffffffffffffffffffffff1673ffffffffffffffffffffffffffffffffffffffff1681526020019081526020016000206000828254611968919061311a565b92505081905550816002600083815260200190815260200160002060006101000a81548173ffffffffffffffffffffffffffffffffffffffff021916908373ffffffffffffffffffffffffffffffffffffffff160217905550808273ffffffffffffffffffffffffffffffffffffffff168473ffffffffffffffffffffffffffffffffffffffff167fddf252ad1be2c89b69c2b068fc378daa952ba7f163c4a11628f55a4df523b3ef60405160405180910390a4611a27838383611d6f565b505050565b600081604051602001611a3f9190612b12565b6040516020818303038152906040528051906020012060001c9050919050565b8173ffffffffffffffffffffffffffffffffffffffff168373ffffffffffffffffffffffffffffffffffffffff161415611ace576040517f08c379a0000000000000000000000000000000000000000000000000000000008152600401611ac590612e4c565b60405180910390fd5b80600560008573ffffffffffffffffffffffffffffffffffffffff1673ffffffffffffffffffffffffffffffffffffffff16815260200190815260200160002060008473ffffffffffffffffffffffffffffffffffffffff1673ffffffffffffffffffffffffffffffffffffffff16815260200190815260200160002060006101000a81548160ff0219169083151502179055508173ffffffffffffffffffffffffffffffffffffffff168373ffffffffffffffffffffffffffffffffffffffff167f17307eab39ab6107e8899845ad3d59bd9653f200f220920489ca2b5937696c3183604051611bbf9190612d36565b60405180910390a3505050565b611bd78484846117c5565b611be384848484611d74565b611c22576040517f08c379a0000000000000000000000000000000000000000000000000000000008152600401611c1990612dcc565b60405180910390fd5b50505050565b606060405180602001604052806000815250905090565b6060611c4a826115ba565b611c89576040517f08c379a0000000000000000000000000000000000000000000000000000000008152600401611c8090612f8c565b60405180910390fd5b6000611c93611c28565b90506000815111611cb35760405180602001604052806000815250611cde565b80611cbd84611358565b604051602001611cce929190612b29565b6040516020818303038152906040525b915050919050565b60008151905060006a636f6e736f6c652e6c6f679050602083016000808483855afa5050505050565b611d198383611f0b565b611d266000848484611d74565b611d65576040517f08c379a0000000000000000000000000000000000000000000000000000000008152600401611d5c90612dcc565b60405180910390fd5b505050565b505050565b505050565b6000611d958473ffffffffffffffffffffffffffffffffffffffff166120e5565b15611efe578373ffffffffffffffffffffffffffffffffffffffff1663150b7a02611dbe611626565b8786866040518563ffffffff1660e01b8152600401611de09493929190612c9f565b602060405180830381600087803b158015611dfa57600080fd5b505af1925050508015611e2b57506040513d601f19601f82011682018060405250810190611e289190612538565b60015b611eae573d8060008114611e5b576040519150601f19603f3d011682016040523d82523d6000602084013e611e60565b606091505b50600081511415611ea6576040517f08c379a0000000000000000000000000000000000000000000000000000000008152600401611e9d90612dcc565b60405180910390fd5b805181602001fd5b63150b7a0260e01b7bffffffffffffffffffffffffffffffffffffffffffffffffffffffff1916817bffffffffffffffffffffffffffffffffffffffffffffffffffffffff191614915050611f03565b600190505b949350505050565b600073ffffffffffffffffffffffffffffffffffffffff168273ffffffffffffffffffffffffffffffffffffffff161415611f7b576040517f08c379a0000000000000000000000000000000000000000000000000000000008152600401611f7290612f0c565b60405180910390fd5b611f84816115ba565b15611fc4576040517f08c379a0000000000000000000000000000000000000000000000000000000008152600401611fbb90612e0c565b60405180910390fd5b611fd060008383611d6a565b6001600360008473ffffffffffffffffffffffffffffffffffffffff1673ffffffffffffffffffffffffffffffffffffffff1681526020019081526020016000206000828254612020919061311a565b92505081905550816002600083815260200190815260200160002060006101000a81548173ffffffffffffffffffffffffffffffffffffffff021916908373ffffffffffffffffffffffffffffffffffffffff160217905550808273ffffffffffffffffffffffffffffffffffffffff16600073ffffffffffffffffffffffffffffffffffffffff167fddf252ad1be2c89b69c2b068fc378daa952ba7f163c4a11628f55a4df523b3ef60405160405180910390a46120e160008383611d6f565b5050565b6000808273ffffffffffffffffffffffffffffffffffffffff163b119050919050565b82805461211490613313565b90600052602060002090601f016020900481019282612136576000855561217d565b82601f1061214f57805160ff191683800117855561217d565b8280016001018555821561217d579182015b8281111561217c578251825591602001919060010190612161565b5b50905061218a919061218e565b5090565b5b808211156121a757600081600090555060010161218f565b5090565b60006121be6121b98461302c565b613007565b905080838252602082019050828560208602820111156121dd57600080fd5b60005b8581101561220d57816121f388826122a9565b8452602084019350602083019250506001810190506121e0565b5050509392505050565b600061222a61222584613058565b613007565b90508281526020810184848401111561224257600080fd5b61224d8482856132d1565b509392505050565b60008135905061226481613b78565b92915050565b600082601f83011261227b57600080fd5b815161228b8482602086016121ab565b91505092915050565b6000813590506122a381613b8f565b92915050565b6000815190506122b881613ba6565b92915050565b6000813590506122cd81613bbd565b92915050565b6000815190506122e281613bbd565b92915050565b600082601f8301126122f957600080fd5b8135612309848260208601612217565b91505092915050565b60008135905061232181613bd4565b92915050565b60006020828403121561233957600080fd5b600061234784828501612255565b91505092915050565b6000806040838503121561236357600080fd5b600061237185828601612255565b925050602061238285828601612255565b9150509250929050565b6000806000606084860312156123a157600080fd5b60006123af86828701612255565b93505060206123c086828701612255565b92505060406123d186828701612312565b9150509250925092565b600080600080608085870312156123f157600080fd5b60006123ff87828801612255565b945050602061241087828801612255565b935050604061242187828801612312565b925050606085013567ffffffffffffffff81111561243e57600080fd5b61244a878288016122e8565b91505092959194509250565b6000806040838503121561246957600080fd5b600061247785828601612255565b925050602061248885828601612294565b9150509250929050565b600080604083850312156124a557600080fd5b60006124b385828601612255565b92505060206124c485828601612312565b9150509250929050565b6000602082840312156124e057600080fd5b600082015167ffffffffffffffff8111156124fa57600080fd5b6125068482850161226a565b91505092915050565b60006020828403121561252157600080fd5b600061252f848285016122be565b91505092915050565b60006020828403121561254a57600080fd5b6000612558848285016122d3565b91505092915050565b60006020828403121561257357600080fd5b600061258184828501612312565b91505092915050565b60006125968383612635565b60208301905092915050565b6125ab8161322f565b82525050565b6125c26125bd8261322f565b6133bf565b82525050565b60006125d3826130ae565b6125dd81856130dc565b93506125e883613089565b8060005b83811015612619578151612600888261258a565b975061260b836130cf565b9250506001810190506125ec565b5085935050505092915050565b61262f81613241565b82525050565b61263e8161324d565b82525050565b600061264f826130b9565b61265981856130ed565b93506126698185602086016132e0565b612672816134d0565b840191505092915050565b612686816132ad565b82525050565b6000612697826130c4565b6126a181856130fe565b93506126b18185602086016132e0565b6126ba816134d0565b840191505092915050565b60006126d0826130c4565b6126da818561310f565b93506126ea8185602086016132e0565b80840191505092915050565b6000815461270381613313565b61270d818661310f565b9450600182166000811461272857600181146127395761276c565b60ff1983168652818601935061276c565b61274285613099565b60005b8381101561276457815481890152600182019150602081019050612745565b838801955050505b50505092915050565b60006127826032836130fe565b915061278d826134ee565b604082019050919050565b60006127a56025836130fe565b91506127b08261353d565b604082019050919050565b60006127c8601c836130fe565b91506127d38261358c565b602082019050919050565b60006127eb600e8361310f565b91506127f6826135b5565b600e82019050919050565b600061280e600c8361310f565b9150612819826135de565b600c82019050919050565b60006128316024836130fe565b915061283c82613607565b604082019050919050565b60006128546019836130fe565b915061285f82613656565b602082019050919050565b6000612877600e8361310f565b91506128828261367f565b600e82019050919050565b600061289a602c836130fe565b91506128a5826136a8565b604082019050919050565b60006128bd6038836130fe565b91506128c8826136f7565b604082019050919050565b60006128e0602a836130fe565b91506128eb82613746565b604082019050919050565b60006129036029836130fe565b915061290e82613795565b604082019050919050565b6000612926602e836130fe565b9150612931826137e4565b604082019050919050565b600061294960028361310f565b915061295482613833565b600282019050919050565b600061296c6020836130fe565b91506129778261385c565b602082019050919050565b600061298f6031836130fe565b915061299a82613885565b604082019050919050565b60006129b2602c836130fe565b91506129bd826138d4565b604082019050919050565b60006129d56026836130fe565b91506129e082613923565b604082019050919050565b60006129f860048361310f565b9150612a0382613972565b600482019050919050565b6000612a1b602f836130fe565b9150612a268261399b565b604082019050919050565b6000612a3e600a8361310f565b9150612a49826139ea565b600a82019050919050565b6000612a61605d8361310f565b9150612a6c82613a13565b605d82019050919050565b6000612a846021836130fe565b9150612a8f82613a88565b604082019050919050565b6000612aa7601d8361310f565b9150612ab282613ad7565b601d82019050919050565b6000612aca6031836130fe565b9150612ad582613b00565b604082019050919050565b6000612aed600d8361310f565b9150612af882613b4f565b600d82019050919050565b612b0c816132a3565b82525050565b6000612b1e82846126c5565b915081905092915050565b6000612b3582856126c5565b9150612b4182846126c5565b91508190509392505050565b6000612b5982866126f6565b9150612b6582856126c5565b9150612b7182846126f6565b9150819050949350505050565b6000612b8982612801565b9150612b9582876125b1565b601482019150612ba48261286a565b9150612bb082866125b1565b601482019150612bbf82612ae0565b9150612bcb82856126c5565b9150612bd6826127de565b9150612be282846126c5565b9150612bed8261293c565b915081905095945050505050565b6000612c06826129eb565b9150612c1282846126c5565b915081905092915050565b6000612c2882612a31565b9150612c3482856126c5565b9150612c3f82612a54565b9150612c4b82846126c5565b9150612c568261293c565b91508190509392505050565b6000612c6d82612a9a565b9150612c7982846126c5565b915081905092915050565b6000602082019050612c9960008301846125a2565b92915050565b6000608082019050612cb460008301876125a2565b612cc160208301866125a2565b612cce6040830185612b03565b8181036060830152612ce08184612644565b905095945050505050565b6000604082019050612d0060008301856125a2565b612d0d6020830184612b03565b9392505050565b60006020820190508181036000830152612d2e81846125c8565b905092915050565b6000602082019050612d4b6000830184612626565b92915050565b6000602082019050612d66600083018461267d565b92915050565b60006020820190508181036000830152612d86818461268c565b905092915050565b60006060820190508181036000830152612da8818661268c565b9050612db76020830185612b03565b612dc460408301846125a2565b949350505050565b60006020820190508181036000830152612de581612775565b9050919050565b60006020820190508181036000830152612e0581612798565b9050919050565b60006020820190508181036000830152612e25816127bb565b9050919050565b60006020820190508181036000830152612e4581612824565b9050919050565b60006020820190508181036000830152612e6581612847565b9050919050565b60006020820190508181036000830152612e858161288d565b9050919050565b60006020820190508181036000830152612ea5816128b0565b9050919050565b60006020820190508181036000830152612ec5816128d3565b9050919050565b60006020820190508181036000830152612ee5816128f6565b9050919050565b60006020820190508181036000830152612f0581612919565b9050919050565b60006020820190508181036000830152612f258161295f565b9050919050565b60006020820190508181036000830152612f4581612982565b9050919050565b60006020820190508181036000830152612f65816129a5565b9050919050565b60006020820190508181036000830152612f85816129c8565b9050919050565b60006020820190508181036000830152612fa581612a0e565b9050919050565b60006020820190508181036000830152612fc581612a77565b9050919050565b60006020820190508181036000830152612fe581612abd565b9050919050565b60006020820190506130016000830184612b03565b92915050565b6000613011613022565b905061301d8282613345565b919050565b6000604051905090565b600067ffffffffffffffff821115613047576130466134a1565b5b602082029050602081019050919050565b600067ffffffffffffffff821115613073576130726134a1565b5b61307c826134d0565b9050602081019050919050565b6000819050602082019050919050565b60008190508160005260206000209050919050565b600081519050919050565b600081519050919050565b600081519050919050565b6000602082019050919050565b600082825260208201905092915050565b600082825260208201905092915050565b600082825260208201905092915050565b600081905092915050565b6000613125826132a3565b9150613130836132a3565b9250827fffffffffffffffffffffffffffffffffffffffffffffffffffffffffffffffff0382111561316557613164613414565b5b828201905092915050565b600061317b826132a3565b9150613186836132a3565b92508261319657613195613443565b5b828204905092915050565b60006131ac826132a3565b91506131b7836132a3565b9250817fffffffffffffffffffffffffffffffffffffffffffffffffffffffffffffffff04831182151516156131f0576131ef613414565b5b828202905092915050565b6000613206826132a3565b9150613211836132a3565b92508282101561322457613223613414565b5b828203905092915050565b600061323a82613283565b9050919050565b60008115159050919050565b6000819050919050565b60007fffffffff0000000000000000000000000000000000000000000000000000000082169050919050565b600073ffffffffffffffffffffffffffffffffffffffff82169050919050565b6000819050919050565b60006132b8826132bf565b9050919050565b60006132ca82613283565b9050919050565b82818337600083830152505050565b60005b838110156132fe5780820151818401526020810190506132e3565b8381111561330d576000848401525b50505050565b6000600282049050600182168061332b57607f821691505b6020821081141561333f5761333e613472565b5b50919050565b61334e826134d0565b810181811067ffffffffffffffff8211171561336d5761336c6134a1565b5b80604052505050565b6000613381826132a3565b91507fffffffffffffffffffffffffffffffffffffffffffffffffffffffffffffffff8214156133b4576133b3613414565b5b600182019050919050565b60006133ca826133d1565b9050919050565b60006133dc826134e1565b9050919050565b60006133ee826132a3565b91506133f9836132a3565b92508261340957613408613443565b5b828206905092915050565b7f4e487b7100000000000000000000000000000000000000000000000000000000600052601160045260246000fd5b7f4e487b7100000000000000000000000000000000000000000000000000000000600052601260045260246000fd5b7f4e487b7100000000000000000000000000000000000000000000000000000000600052602260045260246000fd5b7f4e487b7100000000000000000000000000000000000000000000000000000000600052604160045260246000fd5b6000601f19601f8301169050919050565b60008160601b9050919050565b7f4552433732313a207472616e7366657220746f206e6f6e20455243373231526560008201527f63656976657220696d706c656d656e7465720000000000000000000000000000602082015250565b7f4552433732313a207472616e736665722066726f6d20696e636f72726563742060008201527f6f776e6572000000000000000000000000000000000000000000000000000000602082015250565b7f4552433732313a20746f6b656e20616c7265616479206d696e74656400000000600082015250565b7f222c2022746f6b656e555249223a000000000000000000000000000000000000600082015250565b7f7b2273656e646572223a20220000000000000000000000000000000000000000600082015250565b7f4552433732313a207472616e7366657220746f20746865207a65726f2061646460008201527f7265737300000000000000000000000000000000000000000000000000000000602082015250565b7f4552433732313a20617070726f766520746f2063616c6c657200000000000000600082015250565b7f222c20227265636569766572223a000000000000000000000000000000000000600082015250565b7f4552433732313a206f70657261746f7220717565727920666f72206e6f6e657860008201527f697374656e7420746f6b656e0000000000000000000000000000000000000000602082015250565b7f4552433732313a20617070726f76652063616c6c6572206973206e6f74206f7760008201527f6e6572206e6f7220617070726f76656420666f7220616c6c0000000000000000602082015250565b7f4552433732313a2062616c616e636520717565727920666f7220746865207a6560008201527f726f206164647265737300000000000000000000000000000000000000000000602082015250565b7f4552433732313a206f776e657220717565727920666f72206e6f6e657869737460008201527f656e7420746f6b656e0000000000000000000000000000000000000000000000602082015250565b7f45524337323155524953746f726167653a2055524920736574206f66206e6f6e60008201527f6578697374656e7420746f6b656e000000000000000000000000000000000000602082015250565b7f227d000000000000000000000000000000000000000000000000000000000000600082015250565b7f4552433732313a206d696e7420746f20746865207a65726f2061646472657373600082015250565b7f45524337323155524953746f726167653a2055524920717565727920666f722060008201527f6e6f6e6578697374656e7420746f6b656e000000000000000000000000000000602082015250565b7f4552433732313a20617070726f76656420717565727920666f72206e6f6e657860008201527f697374656e7420746f6b656e0000000000000000000000000000000000000000602082015250565b7f53757270617373656420746865206c696d69742c2063616e74206d696e74206160008201527f6e796d6f72650000000000000000000000000000000000000000000000000000602082015250565b7f504f4b4500000000000000000000000000000000000000000000000000000000600082015250565b7f4552433732314d657461646174613a2055524920717565727920666f72206e6f60008201527f6e6578697374656e7420746f6b656e0000000000000000000000000000000000602082015250565b7f7b226e616d65223a202200000000000000000000000000000000000000000000600082015250565b7f222c20226465736372697074696f6e223a20224120636f6c6c656374696f6e2060008201527f6f6620636f6f6c20706f6b656d6f6e206e616d65732e222c2022696d6167652260208201527f3a2022646174613a696d6167652f7376672b786d6c3b6261736536342c000000604082015250565b7f4552433732313a20617070726f76616c20746f2063757272656e74206f776e6560008201527f7200000000000000000000000000000000000000000000000000000000000000602082015250565b7f646174613a6170706c69636174696f6e2f6a736f6e3b6261736536342c000000600082015250565b7f4552433732313a207472616e736665722063616c6c6572206973206e6f74206f60008201527f776e6572206e6f7220617070726f766564000000000000000000000000000000602082015250565b7f222c2022746f6b656e4964223a00000000000000000000000000000000000000600082015250565b613b818161322f565b8114613b8c57600080fd5b50565b613b9881613241565b8114613ba357600080fd5b50565b613baf8161324d565b8114613bba57600080fd5b50565b613bc681613257565b8114613bd157600080fd5b50565b613bdd816132a3565b8114613be857600080fd5b5056fe416e204e465420772f20494420257320686173206265656e206d696e74656420746f2025734142434445464748494a4b4c4d4e4f505152535455565758595a6162636465666768696a6b6c6d6e6f707172737475767778797a303132333435363738392b2fa26469706673582212201759e78f182d61382a7fb37c94d66733510dc25d49a62656a8ef86301a74366964736f6c6343000804003360806040523480156200001157600080fd5b5060405162000e9b38038062000e9b83398181016040528101906200003791906200014a565b600060016002836200004a9190620001bf565b62000056919062000220565b9050600060028190555060005b818110156200012a5782811015620000c557600160405160200162000088906200019d565b6040516020818303038152906040528051906020012090806001815401808255809150506001900390600052602060002001600090919091909150555b6000604051602001620000d8906200019d565b6040516020818303038152906040528051906020012090806001815401808255809150506001900390600052602060002001600090919091909150558080620001219062000265565b91505062000063565b50505062000325565b60008151905062000144816200030b565b92915050565b6000602082840312156200015d57600080fd5b60006200016d8482850162000133565b91505092915050565b600062000185600483620001b4565b91506200019282620002e2565b600482019050919050565b6000620001aa8262000176565b9150819050919050565b600081905092915050565b6000620001cc826200025b565b9150620001d9836200025b565b9250817fffffffffffffffffffffffffffffffffffffffffffffffffffffffffffffffff0483118215151615620002155762000214620002b3565b5b828202905092915050565b60006200022d826200025b565b91506200023a836200025b565b92508282101562000250576200024f620002b3565b5b828203905092915050565b6000819050919050565b600062000272826200025b565b91507fffffffffffffffffffffffffffffffffffffffffffffffffffffffffffffffff821415620002a857620002a7620002b3565b5b600182019050919050565b7f4e487b7100000000000000000000000000000000000000000000000000000000600052601160045260246000fd5b7f3078303000000000000000000000000000000000000000000000000000000000600082015250565b62000316816200025b565b81146200032257600080fd5b50565b610b6680620003356000396000f3fe608060405234801561001057600080fd5b50600436106100625760003560e01c80631c53c2801461006757806381045ead14610097578063ad2b3037146100b5578063b1498e29146100d3578063d455a79d146100ef578063e29581aa1461011f575b600080fd5b610081600480360381019061007c9190610607565b61013d565b60405161008e9190610780565b60405180910390f35b61009f610161565b6040516100ac919061079b565b60405180910390f35b6100bd61016b565b6040516100ca919061075e565b60405180910390f35b6100ed60048036038101906100e891906105c6565b6101c3565b005b61010960048036038101906101049190610607565b6104cd565b6040516101169190610780565b60405180910390f35b6101276104f1565b604051610134919061075e565b60405180910390f35b6000818154811061014d57600080fd5b906000526020600020016000915090505481565b6000600254905090565b606060018054806020026020016040519081016040528092919081815260200182805480156101b957602002820191906000526020600020905b8154815260200190600101908083116101a5575b5050505050905090565b600180549050600254106101d657600080fd5b6000600180549050905060006002549050826040516020016101f89190610747565b6040516020818303038152906040528051906020012060008281548110610248577f4e487b7100000000000000000000000000000000000000000000000000000000600052603260045260246000fd5b906000526020600020018190555060008181548110610290577f4e487b7100000000000000000000000000000000000000000000000000000000600052603260045260246000fd5b9060005260206000200154600182815481106102d5577f4e487b7100000000000000000000000000000000000000000000000000000000600052603260045260246000fd5b9060005260206000200181905550600060016002846102f491906108e2565b6102fe919061093c565b905060008360028461031091906108b1565b61031a919061085b565b905060008060028561032c9190610a4a565b146103435760018461033e919061093c565b610351565b600184610350919061085b565b5b90505b828210156104ad5760008481548110610396577f4e487b7100000000000000000000000000000000000000000000000000000000600052603260045260246000fd5b9060005260206000200154600082815481106103db577f4e487b7100000000000000000000000000000000000000000000000000000000600052603260045260246000fd5b90600052602060002001546040516020016103f792919061071b565b6040516020818303038152906040528051906020012060008381548110610447577f4e487b7100000000000000000000000000000000000000000000000000000000600052603260045260246000fd5b90600052602060002001819055508193508460028561046691906108b1565b610470919061085b565b915060006002856104819190610a4a565b1461049857600184610493919061093c565b6104a6565b6001846104a5919061085b565b5b9050610354565b600260008154809291906104c0906109f7565b9190505550505050505050565b600181815481106104dd57600080fd5b906000526020600020016000915090505481565b6060600080548060200260200160405190810160405280929190818152602001828054801561053f57602002820191906000526020600020905b81548152602001906001019080831161052b575b5050505050905090565b600061055c610557846107db565b6107b6565b90508281526020810184848401111561057457600080fd5b61057f848285610984565b509392505050565b600082601f83011261059857600080fd5b81356105a8848260208601610549565b91505092915050565b6000813590506105c081610b19565b92915050565b6000602082840312156105d857600080fd5b600082013567ffffffffffffffff8111156105f257600080fd5b6105fe84828501610587565b91505092915050565b60006020828403121561061957600080fd5b6000610627848285016105b1565b91505092915050565b600061063c83836106a6565b60208301905092915050565b60006106538261081c565b61065d818561083f565b93506106688361080c565b8060005b838110156106995781516106808882610630565b975061068b83610832565b92505060018101905061066c565b5085935050505092915050565b6106af81610970565b82525050565b6106be81610970565b82525050565b6106d56106d082610970565b610a40565b82525050565b60006106e682610827565b6106f08185610850565b9350610700818560208601610993565b80840191505092915050565b6107158161097a565b82525050565b600061072782856106c4565b60208201915061073782846106c4565b6020820191508190509392505050565b600061075382846106db565b915081905092915050565b600060208201905081810360008301526107788184610648565b905092915050565b600060208201905061079560008301846106b5565b92915050565b60006020820190506107b0600083018461070c565b92915050565b60006107c06107d1565b90506107cc82826109c6565b919050565b6000604051905090565b600067ffffffffffffffff8211156107f6576107f5610ad9565b5b6107ff82610b08565b9050602081019050919050565b6000819050602082019050919050565b600081519050919050565b600081519050919050565b6000602082019050919050565b600082825260208201905092915050565b600081905092915050565b60006108668261097a565b91506108718361097a565b9250827fffffffffffffffffffffffffffffffffffffffffffffffffffffffffffffffff038211156108a6576108a5610a7b565b5b828201905092915050565b60006108bc8261097a565b91506108c78361097a565b9250826108d7576108d6610aaa565b5b828204905092915050565b60006108ed8261097a565b91506108f88361097a565b9250817fffffffffffffffffffffffffffffffffffffffffffffffffffffffffffffffff048311821515161561093157610930610a7b565b5b828202905092915050565b60006109478261097a565b91506109528361097a565b92508282101561096557610964610a7b565b5b828203905092915050565b6000819050919050565b6000819050919050565b82818337600083830152505050565b60005b838110156109b1578082015181840152602081019050610996565b838111156109c0576000848401525b50505050565b6109cf82610b08565b810181811067ffffffffffffffff821117156109ee576109ed610ad9565b5b80604052505050565b6000610a028261097a565b91507fffffffffffffffffffffffffffffffffffffffffffffffffffffffffffffffff821415610a3557610a34610a7b565b5b600182019050919050565b6000819050919050565b6000610a558261097a565b9150610a608361097a565b925082610a7057610a6f610aaa565b5b828206905092915050565b7f4e487b7100000000000000000000000000000000000000000000000000000000600052601160045260246000fd5b7f4e487b7100000000000000000000000000000000000000000000000000000000600052601260045260246000fd5b7f4e487b7100000000000000000000000000000000000000000000000000000000600052604160045260246000fd5b6000601f19601f8301169050919050565b610b228161097a565b8114610b2d57600080fd5b5056fea2646970667358221220f024774ca232c7ce334f5faf32dd1850b9da2d2dd33822fbf4324333433dfb2264736f6c634300080400333c7376672077696474683d2234303022206865696768743d22343030222076696577426f783d2230203020343030203430302220786d6c6e733d22687474703a2f2f7777772e77332e6f72672f323030302f737667223e3c726563742077696474683d223130302522206865696768743d2231303025222f3e3c7465787420783d223530252220793d223530252220646f6d696e616e742d626173656c696e653d226d6964646c652220746578742d616e63686f723d226d6964646c6522207374796c653d2266696c6c3a236666663b666f6e742d66616d696c793a73616e733b666f6e742d73697a653a33307078223e",
  "linkReferences": {},
  "deployedLinkReferences": {}
}